:1002DE0002350000013B00013C00013A000A21FCFE
:1002EE0060DAF266B6BEE0FEF60A2BFD61DBF3675E
:0502FE00B7BFE1FFF7AE
:1001DB00AE35AF367C027D581201508F37AE35AF3E
:1001EB00367C027D58120150AA04AB057D0A7C00B7
:1001FB00AF03AE021201508F387D0A7C00AF03AE05
:07020B00021201508D39229F
:10035600438901758A18758CFCC28DD2A9D28C226C
:0E037500438910758D3C758BB0D2ABD28E22B1
:0A039100120356120375D2AF80FE6E
:03000B0002001ED2
:10001E00C0E0C0F0C083C082C0D075D000C000C0A8
:10002E0001C002C003C004C005C006C00743890159
:10003E00758A18758CFCC28DD28CD2A91201DB0583
:10004E0036E53670020535E53C146015146016145D
:10005E00601714601E1460272405702B753A0080FB
:10006E0026E5378006E537800CE53875F00A8424DE
:10007E00218010E53875F00A84742B25F080047405
:10008E00212539F8E6F53AAD3CAF3A1202AE120030
:10009E000E053CE53CB40603753C00D007D006D0F7
:1000AE0005D004D003D002D001D000D0D0D082D061
:0600BE0083D0F0D0E03217
:03001B000203835A
:0E038300438910758D3C758BB0D28ED2AB3293
:10034500D2B6D2B700000000C2B600000000C2B7A6
:010355002285
:10031D00C2B7C2B600000000D2B700000000D2B6CE
:05032D000000000022A9
:100212007E80EE601B5F7004C2B68002D2B6000020
:100222000000D2B700000000C2B7EEC313FE80E2A6
:10023200D2B600000000D2B7A2B6920000000000C1
:05024200C2B7A200B3E9
:010247002294
:10024800D2B67E80EE601D00000000D2B720B60551
:10025800F452078003EE420700000000C2B7EEC365
:1002680013FE80E0D2B600000000D2B70000000004
:02027800C2B70B
:01027A002261
:10027B00D2B67E80EE601D00000000D2B720B6051E
:10028B00F452078003EE420700000000C2B7EEC332
:10029B0013FE80E0C2B600000000D2B700000000E1
:0202AB00C2B7D8
:0102AD00222E
:020009000022D3
:05000300007FF7DFFEA5
:0100080022D5
:0E036600EF4E600A120009EF1F70F51E80F2C4
:010374002266
:10033200AD07AC06ED4C600A120003ED1D70F51C12
:0203420080F247
:010344002296
:10030400EF1392A3EF5402C31324FF92A4EF5404F7
:090314001313543F24FF92A522AB
:0402AE008F088D091F
:1002B200E4F50AAF0AE508A807088002C313D8FCD0
:1002C2001392B5C2B47F147E00120366D2B4050A3B
:0C02D200E50AC3940840DCAF09020304F5
:0C000E00D2B07F147E00120366C2B02244
:030000000200C437
:0C00C400787FE4F6D8FD75813C02010B4A
:10015000C2D5EC30E709B2D5E4C39DFDE49CFCEECA
:1001600030E715B2D5E4C39FFFE49EFE120186C3BB
:10017000E49DFDE49CFC800312018630D507C3E4B6
:060180009FFFE49EFE2239
:1000D000020391E493A3F8E493A34003F68001F2B2
:1000E00008DFF48029E493A3F85407240CC8C33331
:1000F000C4540F4420C8834004F456800146F6DF00
:10010000E4800B01020408102040809002DEE47EAF
:10011000019360BCA3FF543F30E509541FFEE493F4
:10012000A360010ECF54C025E060A840B8E493A3BB
:10013000FAE493A3F8E493A3C8C582C8CAC583CAE6
:10014000F0A3C8C582C8CAC583CADFE9DEE780BE9E
:0103030000F9
:10018600BC000BBE0029EF8DF084FFADF022E4CC5D
:10019600F875F008EF2FFFEE33FEEC33FCEE9DEC26
:1001A600984005FCEE9DFE0FD5F0E9E4CEFD22ED6C
:1001B600F8F5F0EE8420D21CFEADF075F008EF2FB6
:1001C600FFED33FD4007985006D5F0F222C398FDA7
:0501D6000FD5F0EA2244
:00000001FF
